{
  "_format": "hh-sol-artifact-1",
  "contractName": "PrivatelyCollection",
  "sourceName": "contracts/PrivatelyCollection.sol",
  "abi": [
    {
      "inputs": [
        {
          "internalType": "string",
          "name": "name",
          "type": "string"
        },
        {
          "internalType": "string",
          "name": "symbol",
          "type": "string"
        }
      ],
      "stateMutability": "nonpayable",
      "type": "constructor"
    },
    {
      "inputs": [],
      "name": "ECDSAInvalidSignature",
      "type": "error"
    },
    {
      "inputs": [
        {
          "internalType": "uint256",
          "name": "length",
          "type": "uint256"
        }
      ],
      "name": "ECDSAInvalidSignatureLength",
      "type": "error"
    },
    {
      "inputs": [
        {
          "internalType": "bytes32",
          "name": "s",
          "type": "bytes32"
        }
      ],
      "name": "ECDSAInvalidSignatureS",
      "type": "error"
    },
    {
      "inputs": [
        {
          "internalType": "address",
          "name": "sender",
          "type": "address"
        },
        {
          "internalType": "uint256",
          "name": "tokenId",
          "type": "uint256"
        },
        {
          "internalType": "address",
          "name": "owner",
          "type": "address"
        }
      ],
      "name": "ERC721IncorrectOwner",
      "type": "error"
    },
    {
      "inputs": [
        {
          "internalType": "address",
          "name": "operator",
          "type": "address"
        },
        {
          "internalType": "uint256",
          "name": "tokenId",
          "type": "uint256"
        }
      ],
      "name": "ERC721InsufficientApproval",
      "type": "error"
    },
    {
      "inputs": [
        {
          "internalType": "address",
          "name": "approver",
          "type": "address"
        }
      ],
      "name": "ERC721InvalidApprover",
      "type": "error"
    },
    {
      "inputs": [
        {
          "internalType": "address",
          "name": "operator",
          "type": "address"
        }
      ],
      "name": "ERC721InvalidOperator",
      "type": "error"
    },
    {
      "inputs": [
        {
          "internalType": "address",
          "name": "owner",
          "type": "address"
        }
      ],
      "name": "ERC721InvalidOwner",
      "type": "error"
    },
    {
      "inputs": [
        {
          "internalType": "address",
          "name": "receiver",
          "type": "address"
        }
      ],
      "name": "ERC721InvalidReceiver",
      "type": "error"
    },
    {
      "inputs": [
        {
          "internalType": "address",
          "name": "sender",
          "type": "address"
        }
      ],
      "name": "ERC721InvalidSender",
      "type": "error"
    },
    {
      "inputs": [
        {
          "internalType": "uint256",
          "name": "tokenId",
          "type": "uint256"
        }
      ],
      "name": "ERC721NonexistentToken",
      "type": "error"
    },
    {
      "inputs": [],
      "name": "InvalidShortString",
      "type": "error"
    },
    {
      "inputs": [
        {
          "internalType": "string",
          "name": "str",
          "type": "string"
        }
      ],
      "name": "StringTooLong",
      "type": "error"
    },
    {
      "anonymous": false,
      "inputs": [
        {
          "indexed": true,
          "internalType": "address",
          "name": "owner",
          "type": "address"
        },
        {
          "indexed": true,
          "internalType": "address",
          "name": "approved",
          "type": "address"
        },
        {
          "indexed": true,
          "internalType": "uint256",
          "name": "tokenId",
          "type": "uint256"
        }
      ],
      "name": "Approval",
      "type": "event"
    },
    {
      "anonymous": false,
      "inputs": [
        {
          "indexed": true,
          "internalType": "address",
          "name": "owner",
          "type": "address"
        },
        {
          "indexed": true,
          "internalType": "address",
          "name": "operator",
          "type": "address"
        },
        {
          "indexed": false,
          "internalType": "bool",
          "name": "approved",
          "type": "bool"
        }
      ],
      "name": "ApprovalForAll",
      "type": "event"
    },
    {
      "anonymous": false,
      "inputs": [
        {
          "indexed": false,
          "internalType": "uint256",
          "name": "_fromTokenId",
          "type": "uint256"
        },
        {
          "indexed": false,
          "internalType": "uint256",
          "name": "_toTokenId",
          "type": "uint256"
        }
      ],
      "name": "BatchMetadataUpdate",
      "type": "event"
    },
    {
      "anonymous": false,
      "inputs": [],
      "name": "EIP712DomainChanged",
      "type": "event"
    },
    {
      "anonymous": false,
      "inputs": [
        {
          "indexed": false,
          "internalType": "uint256",
          "name": "_tokenId",
          "type": "uint256"
        }
      ],
      "name": "MetadataUpdate",
      "type": "event"
    },
    {
      "anonymous": false,
      "inputs": [
        {
          "indexed": true,
          "internalType": "address",
          "name": "to",
          "type": "address"
        },
        {
          "indexed": false,
          "internalType": "uint256",
          "name": "tokenId",
          "type": "uint256"
        }
      ],
      "name": "OnMint",
      "type": "event"
    },
    {
      "anonymous": false,
      "inputs": [
        {
          "indexed": true,
          "internalType": "address",
          "name": "from",
          "type": "address"
        },
        {
          "indexed": true,
          "internalType": "address",
          "name": "to",
          "type": "address"
        },
        {
          "indexed": false,
          "internalType": "uint256",
          "name": "tokenId",
          "type": "uint256"
        }
      ],
      "name": "OnTransfer",
      "type": "event"
    },
    {
      "anonymous": false,
      "inputs": [
        {
          "indexed": true,
          "internalType": "address",
          "name": "from",
          "type": "address"
        },
        {
          "indexed": true,
          "internalType": "address",
          "name": "to",
          "type": "address"
        },
        {
          "indexed": true,
          "internalType": "uint256",
          "name": "tokenId",
          "type": "uint256"
        }
      ],
      "name": "Transfer",
      "type": "event"
    },
    {
      "inputs": [
        {
          "internalType": "address",
          "name": "to",
          "type": "address"
        },
        {
          "internalType": "uint256",
          "name": "tokenId",
          "type": "uint256"
        }
      ],
      "name": "approve",
      "outputs": [],
      "stateMutability": "nonpayable",
      "type": "function"
    },
    {
      "inputs": [
        {
          "internalType": "address",
          "name": "",
          "type": "address"
        }
      ],
      "name": "approveNonces",
      "outputs": [
        {
          "internalType": "uint256",
          "name": "",
          "type": "uint256"
        }
      ],
      "stateMutability": "view",
      "type": "function"
    },
    {
      "inputs": [
        {
          "internalType": "address",
          "name": "owner",
          "type": "address"
        }
      ],
      "name": "balanceOf",
      "outputs": [
        {
          "internalType": "uint256",
          "name": "",
          "type": "uint256"
        }
      ],
      "stateMutability": "view",
      "type": "function"
    },
    {
      "inputs": [],
      "name": "eip712Domain",
      "outputs": [
        {
          "internalType": "bytes1",
          "name": "fields",
          "type": "bytes1"
        },
        {
          "internalType": "string",
          "name": "name",
          "type": "string"
        },
        {
          "internalType": "string",
          "name": "version",
          "type": "string"
        },
        {
          "internalType": "uint256",
          "name": "chainId",
          "type": "uint256"
        },
        {
          "internalType": "address",
          "name": "verifyingContract",
          "type": "address"
        },
        {
          "internalType": "bytes32",
          "name": "salt",
          "type": "bytes32"
        },
        {
          "internalType": "uint256[]",
          "name": "extensions",
          "type": "uint256[]"
        }
      ],
      "stateMutability": "view",
      "type": "function"
    },
    {
      "inputs": [],
      "name": "getAllCollection",
      "outputs": [
        {
          "internalType": "uint256[]",
          "name": "",
          "type": "uint256[]"
        }
      ],
      "stateMutability": "view",
      "type": "function"
    },
    {
      "inputs": [
        {
          "internalType": "uint256",
          "name": "tokenId",
          "type": "uint256"
        }
      ],
      "name": "getApproved",
      "outputs": [
        {
          "internalType": "address",
          "name": "",
          "type": "address"
        }
      ],
      "stateMutability": "view",
      "type": "function"
    },
    {
      "inputs": [
        {
          "internalType": "address",
          "name": "owner",
          "type": "address"
        }
      ],
      "name": "getCollectionOfUser",
      "outputs": [
        {
          "internalType": "uint256[]",
          "name": "",
          "type": "uint256[]"
        }
      ],
      "stateMutability": "view",
      "type": "function"
    },
    {
      "inputs": [
        {
          "internalType": "uint256",
          "name": "tokenId",
          "type": "uint256"
        }
      ],
      "name": "getData",
      "outputs": [
        {
          "internalType": "string",
          "name": "title",
          "type": "string"
        },
        {
          "internalType": "address",
          "name": "author",
          "type": "address"
        },
        {
          "internalType": "string",
          "name": "uri",
          "type": "string"
        }
      ],
      "stateMutability": "view",
      "type": "function"
    },
    {
      "inputs": [
        {
          "internalType": "address",
          "name": "user",
          "type": "address"
        }
      ],
      "name": "getNonces",
      "outputs": [
        {
          "internalType": "uint256",
          "name": "mintNonce",
          "type": "uint256"
        },
        {
          "internalType": "uint256",
          "name": "transferNonce",
          "type": "uint256"
        },
        {
          "internalType": "uint256",
          "name": "approveNonce",
          "type": "uint256"
        }
      ],
      "stateMutability": "view",
      "type": "function"
    },
    {
      "inputs": [
        {
          "internalType": "address",
          "name": "owner",
          "type": "address"
        },
        {
          "internalType": "address",
          "name": "operator",
          "type": "address"
        }
      ],
      "name": "isApprovedForAll",
      "outputs": [
        {
          "internalType": "bool",
          "name": "",
          "type": "bool"
        }
      ],
      "stateMutability": "view",
      "type": "function"
    },
    {
      "inputs": [
        {
          "internalType": "address",
          "name": "owner",
          "type": "address"
        },
        {
          "internalType": "address",
          "name": "spender",
          "type": "address"
        },
        {
          "internalType": "uint256",
          "name": "tokenId",
          "type": "uint256"
        },
        {
          "internalType": "bytes",
          "name": "signature",
          "type": "bytes"
        }
      ],
      "name": "metaApprove",
      "outputs": [],
      "stateMutability": "nonpayable",
      "type": "function"
    },
    {
      "inputs": [
        {
          "internalType": "address",
          "name": "user",
          "type": "address"
        },
        {
          "internalType": "string",
          "name": "title",
          "type": "string"
        },
        {
          "internalType": "string",
          "name": "tokenURI",
          "type": "string"
        },
        {
          "internalType": "bytes",
          "name": "signature",
          "type": "bytes"
        }
      ],
      "name": "metaMint",
      "outputs": [
        {
          "internalType": "uint256",
          "name": "",
          "type": "uint256"
        }
      ],
      "stateMutability": "nonpayable",
      "type": "function"
    },
    {
      "inputs": [
        {
          "internalType": "address",
          "name": "from",
          "type": "address"
        },
        {
          "internalType": "address",
          "name": "to",
          "type": "address"
        },
        {
          "internalType": "uint256",
          "name": "tokenId",
          "type": "uint256"
        },
        {
          "internalType": "bytes",
          "name": "signature",
          "type": "bytes"
        }
      ],
      "name": "metaTransfer",
      "outputs": [],
      "stateMutability": "nonpayable",
      "type": "function"
    },
    {
      "inputs": [
        {
          "internalType": "address",
          "name": "",
          "type": "address"
        }
      ],
      "name": "mintNonces",
      "outputs": [
        {
          "internalType": "uint256",
          "name": "",
          "type": "uint256"
        }
      ],
      "stateMutability": "view",
      "type": "function"
    },
    {
      "inputs": [],
      "name": "name",
      "outputs": [
        {
          "internalType": "string",
          "name": "",
          "type": "string"
        }
      ],
      "stateMutability": "view",
      "type": "function"
    },
    {
      "inputs": [
        {
          "internalType": "uint256",
          "name": "tokenId",
          "type": "uint256"
        }
      ],
      "name": "ownerOf",
      "outputs": [
        {
          "internalType": "address",
          "name": "",
          "type": "address"
        }
      ],
      "stateMutability": "view",
      "type": "function"
    },
    {
      "inputs": [
        {
          "internalType": "address",
          "name": "from",
          "type": "address"
        },
        {
          "internalType": "address",
          "name": "to",
          "type": "address"
        },
        {
          "internalType": "uint256",
          "name": "tokenId",
          "type": "uint256"
        }
      ],
      "name": "safeTransferFrom",
      "outputs": [],
      "stateMutability": "nonpayable",
      "type": "function"
    },
    {
      "inputs": [
        {
          "internalType": "address",
          "name": "from",
          "type": "address"
        },
        {
          "internalType": "address",
          "name": "to",
          "type": "address"
        },
        {
          "internalType": "uint256",
          "name": "tokenId",
          "type": "uint256"
        },
        {
          "internalType": "bytes",
          "name": "data",
          "type": "bytes"
        }
      ],
      "name": "safeTransferFrom",
      "outputs": [],
      "stateMutability": "nonpayable",
      "type": "function"
    },
    {
      "inputs": [
        {
          "internalType": "address",
          "name": "operator",
          "type": "address"
        },
        {
          "internalType": "bool",
          "name": "approved",
          "type": "bool"
        }
      ],
      "name": "setApprovalForAll",
      "outputs": [],
      "stateMutability": "nonpayable",
      "type": "function"
    },
    {
      "inputs": [
        {
          "internalType": "bytes4",
          "name": "interfaceId",
          "type": "bytes4"
        }
      ],
      "name": "supportsInterface",
      "outputs": [
        {
          "internalType": "bool",
          "name": "",
          "type": "bool"
        }
      ],
      "stateMutability": "view",
      "type": "function"
    },
    {
      "inputs": [],
      "name": "symbol",
      "outputs": [
        {
          "internalType": "string",
          "name": "",
          "type": "string"
        }
      ],
      "stateMutability": "view",
      "type": "function"
    },
    {
      "inputs": [
        {
          "internalType": "uint256",
          "name": "tokenId",
          "type": "uint256"
        }
      ],
      "name": "tokenURI",
      "outputs": [
        {
          "internalType": "string",
          "name": "",
          "type": "string"
        }
      ],
      "stateMutability": "view",
      "type": "function"
    },
    {
      "inputs": [
        {
          "internalType": "address",
          "name": "from",
          "type": "address"
        },
        {
          "internalType": "address",
          "name": "to",
          "type": "address"
        },
        {
          "internalType": "uint256",
          "name": "tokenId",
          "type": "uint256"
        }
      ],
      "name": "transferFrom",
      "outputs": [],
      "stateMutability": "nonpayable",
      "type": "function"
    },
    {
      "inputs": [
        {
          "internalType": "address",
          "name": "",
          "type": "address"
        }
      ],
      "name": "transferNonces",
      "outputs": [
        {
          "internalType": "uint256",
          "name": "",
          "type": "uint256"
        }
      ],
      "stateMutability": "view",
      "type": "function"
    }
  ],
  "bytecode": "0x61016060405234801561001157600080fd5b50604051614e07380380614e07833981810160405281019061003391906103d1565b816040518060400160405280600581526020017f312e302e300000000000000000000000000000000000000000000000000000008152508383816000908161007b919061066a565b50806001908161008b919061066a565b5050506100a260078361013f60201b90919060201c565b61012081815250506100be60088261013f60201b90919060201c565b6101408181525050818051906020012060e08181525050808051906020012061010081815250504660a081815250506100fb61018f60201b60201c565b608081815250503073ffffffffffffffffffffffffffffffffffffffff1660c08173ffffffffffffffffffffffffffffffffffffffff1681525050505050506108fb565b60006020835110156101615761015a836101ea60201b60201c565b9050610189565b826101718361025260201b60201c565b6000019081610180919061066a565b5060ff60001b90505b92915050565b60007f8b73c3c69bb8fe3d512ecc4cf759cc79239f7b179b0ffacaa9a75d522b39400f60e0516101005146306040516020016101cf9594939291906107a5565b60405160208183030381529060405280519060200120905090565b600080829050601f8151111561023757826040517f305a27a900000000000000000000000000000000000000000000000000000000815260040161022e9190610842565b60405180910390fd5b80518161024390610894565b60001c1760001b915050919050565b6000819050919050565b6000604051905090565b600080fd5b600080fd5b600080fd5b600080fd5b6000601f19601f8301169050919050565b7f4e487b7100000000000000000000000000000000000000000000000000000000600052604160045260246000fd5b6102c38261027a565b810181811067ffffffffffffffff821117156102e2576102e161028b565b5b80604052505050565b60006102f561025c565b905061030182826102ba565b919050565b600067ffffffffffffffff8211156103215761032061028b565b5b61032a8261027a565b9050602081019050919050565b60005b8381101561035557808201518184015260208101905061033a565b60008484015250505050565b600061037461036f84610306565b6102eb565b9050828152602081018484840111156103905761038f610275565b5b61039b848285610337565b509392505050565b600082601f8301126103b8576103b7610270565b5b81516103c8848260208601610361565b91505092915050565b600080604083850312156103e8576103e7610266565b5b600083015167ffffffffffffffff8111156104065761040561026b565b5b610412858286016103a3565b925050602083015167ffffffffffffffff8111156104335761043261026b565b5b61043f858286016103a3565b9150509250929050565b600081519050919050565b7f4e487b7100000000000000000000000000000000000000000000000000000000600052602260045260246000fd5b6000600282049050600182168061049b57607f821691505b6020821081036104ae576104ad610454565b5b50919050565b60008190508160005260206000209050919050565b60006020601f8301049050919050565b600082821b905092915050565b6000600883026105167fffffffffffffffffffffffffffffffffffffffffffffffffffffffffffffffff826104d9565b61052086836104d9565b95508019841693508086168417925050509392505050565b6000819050919050565b6000819050919050565b600061056761056261055d84610538565b610542565b610538565b9050919050565b6000819050919050565b6105818361054c565b61059561058d8261056e565b8484546104e6565b825550505050565b600090565b6105aa61059d565b6105b5818484610578565b505050565b5b818110156105d9576105ce6000826105a2565b6001810190506105bb565b5050565b601f82111561061e576105ef816104b4565b6105f8846104c9565b81016020851015610607578190505b61061b610613856104c9565b8301826105ba565b50505b505050565b600082821c905092915050565b600061064160001984600802610623565b1980831691505092915050565b600061065a8383610630565b9150826002028217905092915050565b61067382610449565b67ffffffffffffffff81111561068c5761068b61028b565b5b6106968254610483565b6106a18282856105dd565b600060209050601f8311600181146106d457600084156106c2578287015190505b6106cc858261064e565b865550610734565b601f1984166106e2866104b4565b60005b8281101561070a578489015182556001820191506020850194506020810190506106e5565b868310156107275784890151610723601f891682610630565b8355505b6001600288020188555050505b505050505050565b6000819050919050565b61074f8161073c565b82525050565b61075e81610538565b82525050565b600073ffffffffffffffffffffffffffffffffffffffff82169050919050565b600061078f82610764565b9050919050565b61079f81610784565b82525050565b600060a0820190506107ba6000830188610746565b6107c76020830187610746565b6107d46040830186610746565b6107e16060830185610755565b6107ee6080830184610796565b9695505050505050565b600082825260208201905092915050565b600061081482610449565b61081e81856107f8565b935061082e818560208601610337565b6108378161027a565b840191505092915050565b6000602082019050818103600083015261085c8184610809565b905092915050565b600081519050919050565b6000819050602082019050919050565b600061088b825161073c565b80915050919050565b600061089f82610864565b826108a98461086f565b90506108b48161087f565b925060208210156108f4576108ef7fffffffffffffffffffffffffffffffffffffffffffffffffffffffffffffffff836020036008026104d9565b831692505b5050919050565b60805160a05160c05160e0516101005161012051610140516144b26109556000396000611ceb01526000611cb001526000612d4501526000612d24015260006126b40152600061270a0152600061273301526144b26000f3fe608060405234801561001057600080fd5b50600436106101585760003560e01c80639540bce8116100c3578063b88d4fde1161007c578063b88d4fde14610419578063c87b56dd14610435578063e985e9c514610465578063eec3104214610495578063efd889d7146104b3578063f6f0e8a6146104e357610158565b80639540bce81461034757806395d89b4114610377578063a22cb46514610395578063a6dedeb5146103b1578063aabb3b09146103cd578063b7009f55146103fd57610158565b806342842e0e1161011557806342842e0e146102455780635124ae95146102615780636352211e1461029357806370a08231146102c35780637d290a49146102f357806384b0196e1461032357610158565b80630178fe3f1461015d57806301ffc9a71461018f57806306fdde03146101bf578063081812fc146101dd578063095ea7b31461020d57806323b872dd14610229575b600080fd5b610177600480360381019061017291906131ab565b610513565b604051610186939291906132a9565b60405180910390f35b6101a960048036038101906101a49190613346565b61068c565b6040516101b6919061338e565b60405180910390f35b6101c76106ed565b6040516101d491906133a9565b60405180910390f35b6101f760048036038101906101f291906131ab565b61077f565b60405161020491906133cb565b60405180910390f35b61022760048036038101906102229190613412565b61079b565b005b610243600480360381019061023e9190613452565b6107b1565b005b61025f600480360381019061025a9190613452565b6108b3565b005b61027b600480360381019061027691906134a5565b6108d3565b60405161028a939291906134e1565b60405180910390f35b6102ad60048036038101906102a891906131ab565b6109a5565b6040516102ba91906133cb565b60405180910390f35b6102dd60048036038101906102d891906134a5565b6109b7565b6040516102ea9190613518565b60405180910390f35b61030d600480360381019061030891906135ee565b610a71565b60405161031a9190613518565b60405180910390f35b61032b610e24565b60405161033e97969594939291906137c9565b60405180910390f35b610361600480360381019061035c91906134a5565b610ece565b60405161036e9190613518565b60405180910390f35b61037f610ee6565b60405161038c91906133a9565b60405180910390f35b6103af60048036038101906103aa9190613879565b610f78565b005b6103cb60048036038101906103c691906138b9565b610f8e565b005b6103e760048036038101906103e291906134a5565b611232565b6040516103f49190613941565b60405180910390f35b610417600480360381019061041291906138b9565b611346565b005b610433600480360381019061042e9190613a93565b6115f0565b005b61044f600480360381019061044a91906131ab565b611615565b60405161045c91906133a9565b60405180910390f35b61047f600480360381019061047a9190613b16565b611728565b60405161048c919061338e565b60405180910390f35b61049d6117bc565b6040516104aa9190613941565b60405180910390f35b6104cd60048036038101906104c891906134a5565b611814565b6040516104da9190613518565b60405180910390f35b6104fd60048036038101906104f891906134a5565b61182c565b60405161050a9190613518565b60405180910390f35b60606000606061052284611844565b610561576040517f08c379a000000000000000000000000000000000000000000000000000000000815260040161055890613ba2565b60405180910390fd5b60006009600086815260200190815260200160002060405180604001604052908160008201805461059190613bf1565b80601f01602080910402602001604051908101604052809291908181526020018280546105bd90613bf1565b801561060a5780601f106105df5761010080835404028352916020019161060a565b820191906000526020600020905b8154815290600101906020018083116105ed57829003601f168201915b505050505081526020016001820160009054906101000a900473ffffffffffffffffffffffffffffffffffffffff1673ffffffffffffffffffffffffffffffffffffffff1673ffffffffffffffffffffffffffffffffffffffff16815250509050806000015193508060200151925061068285611615565b9150509193909250565b6000634906490660e01b7bffffffffffffffffffffffffffffffffffffffffffffffffffffffff1916827bffffffffffffffffffffffffffffffffffffffffffffffffffffffff191614806106e657506106e582611885565b5b9050919050565b6060600080546106fc90613bf1565b80601f016020809104026020016040519081016040528092919081815260200182805461072890613bf1565b80156107755780601f1061074a57610100808354040283529160200191610775565b820191906000526020600020905b81548152906001019060200180831161075857829003601f168201915b5050505050905090565b600061078a82611967565b50610794826119ef565b9050919050565b6107ad82826107a8611a2c565b611a34565b5050565b600073ffffffffffffffffffffffffffffffffffffffff168273ffffffffffffffffffffffffffffffffffffffff16036108235760006040517f64a0ae9200000000000000000000000000000000000000000000000000000000815260040161081a91906133cb565b60405180910390fd5b60006108378383610832611a2c565b611a46565b90508373ffffffffffffffffffffffffffffffffffffffff168173ffffffffffffffffffffffffffffffffffffffff16146108ad578382826040517f64283d7b0000000000000000000000000000000000000000000000000000000081526004016108a493929190613c22565b60405180910390fd5b50505050565b6108ce838383604051806020016040528060008152506115f0565b505050565b6000806000600a60008573ffffffffffffffffffffffffffffffffffffffff1673ffffffffffffffffffffffffffffffffffffffff168152602001908152602001600020549250600b60008573ffffffffffffffffffffffffffffffffffffffff1673ffffffffffffffffffffffffffffffffffffffff168152602001908152602001600020549150600c60008573ffffffffffffffffffffffffffffffffffffffff1673ffffffffffffffffffffffffffffffffffffffff1681526020019081526020016000205490509193909250565b60006109b082611967565b9050919050565b60008073ffffffffffffffffffffffffffffffffffffffff168273ffffffffffffffffffffffffffffffffffffffff1603610a2a5760006040517f89c62b64000000000000000000000000000000000000000000000000000000008152600401610a2191906133cb565b60405180910390fd5b600360008373ffffffffffffffffffffffffffffffffffffffff1673ffffffffffffffffffffffffffffffffffffffff168152602001908152602001600020549050919050565b6000806040518060a001604052808a73ffffffffffffffffffffffffffffffffffffffff16815260200189898080601f016020809104026020016040519081016040528093929190818152602001838380828437600081840152601f19601f8201169050808301925050505050505081526020018a73ffffffffffffffffffffffffffffffffffffffff16815260200187878080601f016020809104026020016040519081016040528093929190818152602001838380828437600081840152601f19601f820116905080830192505050505050508152602001600a60008c73ffffffffffffffffffffffffffffffffffffffff1673ffffffffffffffffffffffffffffffffffffffff1681526020019081526020016000205481525090506000610c0d7fd65fd5ec6f835c5c3bd2f271b23b7f84da037baaec919d5204ccf079d4adfc04836000015184602001518051906020012085604001518660600151805190602001208760800151604051602001610bf296959493929190613c59565b60405160208183030381529060405280519060200120611b7f565b90506000610c6886868080601f016020809104026020016040519081016040528093929190818152602001838380828437600081840152601f19601f8201169050808301925050505050505083611b9990919063ffffffff16565b90508a73ffffffffffffffffffffffffffffffffffffffff168173ffffffffffffffffffffffffffffffffffffffff1614610cd8576040517f08c379a0000000000000000000000000000000000000000000000000000000008152600401610ccf90613d06565b60405180910390fd5b600a60008c73ffffffffffffffffffffffffffffffffffffffff1673ffffffffffffffffffffffffffffffffffffffff1681526020019081526020016000206000815480929190610d2890613d55565b919050555060008b428c8c600e54604051602001610d4a959493929190613e36565b6040516020818303038152906040528051906020012060001c9050600e6000815480929190610d7890613d55565b9190505550610e128c828d8d8080601f016020809104026020016040519081016040528093929190818152602001838380828437600081840152601f19601f820116905080830192505050505050508f8d8d8080601f016020809104026020016040519081016040528093929190818152602001838380828437600081840152601f19601f82011690508083019250505050505050611bc5565b80945050505050979650505050505050565b600060608060008060006060610e38611ca7565b610e40611ce2565b46306000801b600067ffffffffffffffff811115610e6157610e60613968565b5b604051908082528060200260200182016040528015610e8f5781602001602082028036833780820191505090505b507f0f00000000000000000000000000000000000000000000000000000000000000959493929190965096509650965096509650965090919293949596565b600a6020528060005260406000206000915090505481565b606060018054610ef590613bf1565b80601f0160208091040260200160405190810160405280929190818152602001828054610f2190613bf1565b8015610f6e5780601f10610f4357610100808354040283529160200191610f6e565b820191906000526020600020905b815481529060010190602001808311610f5157829003601f168201915b5050505050905090565b610f8a610f83611a2c565b8383611d1d565b5050565b600060405180608001604052808773ffffffffffffffffffffffffffffffffffffffff1681526020018673ffffffffffffffffffffffffffffffffffffffff168152602001858152602001600b60008973ffffffffffffffffffffffffffffffffffffffff1673ffffffffffffffffffffffffffffffffffffffff16815260200190815260200160002054815250905060006110877fb3bf497ff87baf32c9b114f5120e7773ea223cb39c83402f3ff77fd32340fbe2836000015184602001518560400151866060015160405160200161106c959493929190613e82565b60405160208183030381529060405280519060200120611b7f565b905060006110e285858080601f016020809104026020016040519081016040528093929190818152602001838380828437600081840152601f19601f8201169050808301925050505050505083611b9990919063ffffffff16565b90508773ffffffffffffffffffffffffffffffffffffffff168173ffffffffffffffffffffffffffffffffffffffff1614611152576040517f08c379a000000000000000000000000000000000000000000000000000000000815260040161114990613d06565b60405180910390fd5b8773ffffffffffffffffffffffffffffffffffffffff16611172876109a5565b73ffffffffffffffffffffffffffffffffffffffff16146111c8576040517f08c379a00000000000000000000000000000000000000000000000000000000081526004016111bf90613f21565b60405180910390fd5b600b60008973ffffffffffffffffffffffffffffffffffffffff1673ffffffffffffffffffffffffffffffffffffffff168152602001908152602001600020600081548092919061121890613d55565b9190505550611228888888611e8c565b5050505050505050565b6060600061123f836109b7565b905060008167ffffffffffffffff81111561125d5761125c613968565b5b60405190808252806020026020018201604052801561128b5781602001602082028036833780820191505090505b5090506000805b600d8054905081101561133a576000600d82815481106112b5576112b4613f41565b5b906000526020600020015490508673ffffffffffffffffffffffffffffffffffffffff166112e2826109a5565b73ffffffffffffffffffffffffffffffffffffffff160361132c578084848151811061131157611310613f41565b5b602002602001018181525050828061132890613d55565b9350505b508080600101915050611292565b50819350505050919050565b6000600c60008773ffffffffffffffffffffffffffffffffffffffff1673ffffffffffffffffffffffffffffffffffffffff168152602001908152602001600020549050600060405180608001604052808873ffffffffffffffffffffffffffffffffffffffff1681526020018773ffffffffffffffffffffffffffffffffffffffff16815260200186815260200183815250905060006114447f2be4d77af42028e6a282873bc35a82e212844ac01abfe8910898463d94cac31b8360000151846020015185604001518660600151604051602001611429959493929190613e82565b60405160208183030381529060405280519060200120611b7f565b9050600061149f86868080601f016020809104026020016040519081016040528093929190818152602001838380828437600081840152601f19601f8201169050808301925050505050505083611b9990919063ffffffff16565b90508873ffffffffffffffffffffffffffffffffffffffff168173ffffffffffffffffffffffffffffffffffffffff161461150f576040517f08c379a000000000000000000000000000000000000000000000000000000000815260040161150690613d06565b60405180910390fd5b8873ffffffffffffffffffffffffffffffffffffffff1661152f886109a5565b73ffffffffffffffffffffffffffffffffffffffff1614611585576040517f08c379a000000000000000000000000000000000000000000000000000000000815260040161157c90613f21565b60405180910390fd5b600c60008a73ffffffffffffffffffffffffffffffffffffffff1673ffffffffffffffffffffffffffffffffffffffff16815260200190815260200160002060008154809291906115d590613d55565b91905055506115e588888b611a34565b505050505050505050565b6115fb8484846107b1565b61160f611606611a2c565b85858585611ff9565b50505050565b606061162082611967565b50600060066000848152602001908152602001600020805461164190613bf1565b80601f016020809104026020016040519081016040528092919081815260200182805461166d90613bf1565b80156116ba5780601f1061168f576101008083540402835291602001916116ba565b820191906000526020600020905b81548152906001019060200180831161169d57829003601f168201915b5050505050905060006116cb6121aa565b905060008151036116e0578192505050611723565b6000825111156117155780826040516020016116fd929190613fa1565b60405160208183030381529060405292505050611723565b61171e846121c1565b925050505b919050565b6000600560008473ffffffffffffffffffffffffffffffffffffffff1673ffffffffffffffffffffffffffffffffffffffff16815260200190815260200160002060008373ffffffffffffffffffffffffffffffffffffffff1673ffffffffffffffffffffffffffffffffffffffff16815260200190815260200160002060009054906101000a900460ff16905092915050565b6060600d80548060200260200160405190810160405280929190818152602001828054801561180a57602002820191906000526020600020905b8154815260200190600101908083116117f6575b5050505050905090565b600c6020528060005260406000206000915090505481565b600b6020528060005260406000206000915090505481565b60008073ffffffffffffffffffffffffffffffffffffffff16611866836109a5565b73ffffffffffffffffffffffffffffffffffffffff1614159050919050565b60007f80ac58cd000000000000000000000000000000000000000000000000000000007bffffffffffffffffffffffffffffffffffffffffffffffffffffffff1916827bffffffffffffffffffffffffffffffffffffffffffffffffffffffff1916148061195057507f5b5e139f000000000000000000000000000000000000000000000000000000007bffffffffffffffffffffffffffffffffffffffffffffffffffffffff1916827bffffffffffffffffffffffffffffffffffffffffffffffffffffffff1916145b80611960575061195f8261222a565b5b9050919050565b60008061197383612294565b9050600073ffffffffffffffffffffffffffffffffffffffff168173ffffffffffffffffffffffffffffffffffffffff16036119e657826040517f7e2732890000000000000000000000000000000000000000000000000000000081526004016119dd9190613518565b60405180910390fd5b80915050919050565b60006004600083815260200190815260200160002060009054906101000a900473ffffffffffffffffffffffffffffffffffffffff169050919050565b600033905090565b611a4183838360016122d1565b505050565b6000611a53848484612496565b9050600073ffffffffffffffffffffffffffffffffffffffff168173ffffffffffffffffffffffffffffffffffffffff1603611adc578373ffffffffffffffffffffffffffffffffffffffff167f1529a9200360f99ee9cf6ad15a6f3dffc89be98fae29db5ba33da006ccce381784604051611acf9190613518565b60405180910390a2611b78565b600073ffffffffffffffffffffffffffffffffffffffff168473ffffffffffffffffffffffffffffffffffffffff160315611b77578373ffffffffffffffffffffffffffffffffffffffff168173ffffffffffffffffffffffffffffffffffffffff167fbbedcb837162a70780767a22e1a55cd24f272af57731058a3faed2412954ec6885604051611b6e9190613518565b60405180910390a35b5b9392505050565b6000611b92611b8c6126b0565b83612767565b9050919050565b600080600080611ba986866127a8565b925092509250611bb98282612804565b82935050505092915050565b60405180604001604052808481526020018373ffffffffffffffffffffffffffffffffffffffff16815250600960008681526020019081526020016000206000820151816000019081611c189190614171565b5060208201518160010160006101000a81548173ffffffffffffffffffffffffffffffffffffffff021916908373ffffffffffffffffffffffffffffffffffffffff160217905550905050600d849080600181540180825580915050600190039060005260206000200160009091909190915055611c968585612968565b611ca08482612a61565b5050505050565b6060611cdd60077f0000000000000000000000000000000000000000000000000000000000000000612abd90919063ffffffff16565b905090565b6060611d1860087f0000000000000000000000000000000000000000000000000000000000000000612abd90919063ffffffff16565b905090565b600073ffffffffffffffffffffffffffffffffffffffff168273ffffffffffffffffffffffffffffffffffffffff1603611d8e57816040517f5b08ba18000000000000000000000000000000000000000000000000000000008152600401611d8591906133cb565b60405180910390fd5b80600560008573ffffffffffffffffffffffffffffffffffffffff1673ffffffffffffffffffffffffffffffffffffffff16815260200190815260200160002060008473ffffffffffffffffffffffffffffffffffffffff1673ffffffffffffffffffffffffffffffffffffffff16815260200190815260200160002060006101000a81548160ff0219169083151502179055508173ffffffffffffffffffffffffffffffffffffffff168373ffffffffffffffffffffffffffffffffffffffff167f17307eab39ab6107e8899845ad3d59bd9653f200f220920489ca2b5937696c3183604051611e7f919061338e565b60405180910390a3505050565b600073ffffffffffffffffffffffffffffffffffffffff168273ffffffffffffffffffffffffffffffffffffffff1603611efe5760006040517f64a0ae92000000000000000000000000000000000000000000000000000000008152600401611ef591906133cb565b60405180910390fd5b6000611f0c83836000611a46565b9050600073ffffffffffffffffffffffffffffffffffffffff168173ffffffffffffffffffffffffffffffffffffffff1603611f7f57816040517f7e273289000000000000000000000000000000000000000000000000000000008152600401611f769190613518565b60405180910390fd5b8373ffffffffffffffffffffffffffffffffffffffff168173ffffffffffffffffffffffffffffffffffffffff1614611ff3578382826040517f64283d7b000000000000000000000000000000000000000000000000000000008152600401611fea93929190613c22565b60405180910390fd5b50505050565b60008373ffffffffffffffffffffffffffffffffffffffff163b11156121a3578273ffffffffffffffffffffffffffffffffffffffff1663150b7a02868685856040518563ffffffff1660e01b81526004016120589493929190614298565b6020604051808303816000875af192505050801561209457506040513d601f19601f8201168201806040525081019061209191906142f9565b60015b612118573d80600081146120c4576040519150601f19603f3d011682016040523d82523d6000602084013e6120c9565b606091505b50600081510361211057836040517f64a0ae9200000000000000000000000000000000000000000000000000000000815260040161210791906133cb565b60405180910390fd5b805181602001fd5b63150b7a0260e01b7bffffffffffffffffffffffffffffffffffffffffffffffffffffffff1916817bffffffffffffffffffffffffffffffffffffffffffffffffffffffff1916146121a157836040517f64a0ae9200000000000000000000000000000000000000000000000000000000815260040161219891906133cb565b60405180910390fd5b505b5050505050565b606060405180602001604052806000815250905090565b60606121cc82611967565b5060006121d76121aa565b905060008151116121f75760405180602001604052806000815250612222565b8061220184612b6d565b604051602001612212929190613fa1565b6040516020818303038152906040525b915050919050565b60007f01ffc9a7000000000000000000000000000000000000000000000000000000007bffffffffffffffffffffffffffffffffffffffffffffffffffffffff1916827bffffffffffffffffffffffffffffffffffffffffffffffffffffffff1916149050919050565b60006002600083815260200190815260200160002060009054906101000a900473ffffffffffffffffffffffffffffffffffffffff169050919050565b808061230a5750600073ffffffffffffffffffffffffffffffffffffffff168273ffffffffffffffffffffffffffffffffffffffff1614155b1561243e57600061231a84611967565b9050600073ffffffffffffffffffffffffffffffffffffffff168373ffffffffffffffffffffffffffffffffffffffff161415801561238557508273ffffffffffffffffffffffffffffffffffffffff168173ffffffffffffffffffffffffffffffffffffffff1614155b801561239857506123968184611728565b155b156123da57826040517fa9fbf51f0000000000000000000000000000000000000000000000000000000081526004016123d191906133cb565b60405180910390fd5b811561243c57838573ffffffffffffffffffffffffffffffffffffffff168273ffffffffffffffffffffffffffffffffffffffff167f8c5be1e5ebec7d5bd14f71427d1e84f3dd0314c0f7b2291e5b200ac8c7c3b92560405160405180910390a45b505b836004600085815260200190815260200160002060006101000a81548173ffffffffffffffffffffffffffffffffffffffff021916908373ffffffffffffffffffffffffffffffffffffffff16021790555050505050565b6000806124a284612294565b9050600073ffffffffffffffffffffffffffffffffffffffff168373ffffffffffffffffffffffffffffffffffffffff16146124e4576124e3818486612c3b565b5b600073ffffffffffffffffffffffffffffffffffffffff168173ffffffffffffffffffffffffffffffffffffffff1614612575576125266000856000806122d1565b6001600360008373ffffffffffffffffffffffffffffffffffffffff1673ffffffffffffffffffffffffffffffffffffffff168152602001908152602001600020600082825403925050819055505b600073ffffffffffffffffffffffffffffffffffffffff168573ffffffffffffffffffffffffffffffffffffffff16146125f8576001600360008773ffffffffffffffffffffffffffffffffffffffff1673ffffffffffffffffffffffffffffffffffffffff168152602001908152602001600020600082825401925050819055505b846002600086815260200190815260200160002060006101000a81548173ffffffffffffffffffffffffffffffffffffffff021916908373ffffffffffffffffffffffffffffffffffffffff160217905550838573ffffffffffffffffffffffffffffffffffffffff168273ffffffffffffffffffffffffffffffffffffffff167fddf252ad1be2c89b69c2b068fc378daa952ba7f163c4a11628f55a4df523b3ef60405160405180910390a4809150509392505050565b60007f000000000000000000000000000000000000000000000000000000000000000073ffffffffffffffffffffffffffffffffffffffff163073ffffffffffffffffffffffffffffffffffffffff1614801561272c57507f000000000000000000000000000000000000000000000000000000000000000046145b15612759577f00000000000000000000000000000000000000000000000000000000000000009050612764565b612761612cff565b90505b90565b60006040517f190100000000000000000000000000000000000000000000000000000000000081528360028201528260228201526042812091505092915050565b600080600060418451036127ed5760008060006020870151925060408701519150606087015160001a90506127df88828585612d95565b9550955095505050506127fd565b60006002855160001b9250925092505b9250925092565b6000600381111561281857612817614326565b5b82600381111561282b5761282a614326565b5b0315612964576001600381111561284557612844614326565b5b82600381111561285857612857614326565b5b0361288f576040517ff645eedf00000000000000000000000000000000000000000000000000000000815260040160405180910390fd5b600260038111156128a3576128a2614326565b5b8260038111156128b6576128b5614326565b5b036128fb578060001c6040517ffce698f70000000000000000000000000000000000000000000000000000000081526004016128f29190613518565b60405180910390fd5b60038081111561290e5761290d614326565b5b82600381111561292157612920614326565b5b0361296357806040517fd78bce0c00000000000000000000000000000000000000000000000000000000815260040161295a9190614355565b60405180910390fd5b5b5050565b600073ffffffffffffffffffffffffffffffffffffffff168273ffffffffffffffffffffffffffffffffffffffff16036129da5760006040517f64a0ae920000000000000000000000000000000000000000000000000000000081526004016129d191906133cb565b60405180910390fd5b60006129e883836000611a46565b9050600073ffffffffffffffffffffffffffffffffffffffff168173ffffffffffffffffffffffffffffffffffffffff1614612a5c5760006040517f73c6ac6e000000000000000000000000000000000000000000000000000000008152600401612a5391906133cb565b60405180910390fd5b505050565b80600660008481526020019081526020016000209081612a819190614171565b507ff8e1a15aba9398e019f0b49df1a4fde98ee17ae345cb5f6b5e2c27f5033e8ce782604051612ab19190613518565b60405180910390a15050565b606060ff60001b8314612ada57612ad383612e89565b9050612b67565b818054612ae690613bf1565b80601f0160208091040260200160405190810160405280929190818152602001828054612b1290613bf1565b8015612b5f5780601f10612b3457610100808354040283529160200191612b5f565b820191906000526020600020905b815481529060010190602001808311612b4257829003601f168201915b505050505090505b92915050565b606060006001612b7c84612efd565b01905060008167ffffffffffffffff811115612b9b57612b9a613968565b5b6040519080825280601f01601f191660200182016040528015612bcd5781602001600182028036833780820191505090505b509050600082602001820190505b600115612c30578080600190039150507f3031323334353637383961626364656600000000000000000000000000000000600a86061a8153600a8581612c2457612c23614370565b5b04945060008503612bdb575b819350505050919050565b612c46838383613050565b612cfa57600073ffffffffffffffffffffffffffffffffffffffff168373ffffffffffffffffffffffffffffffffffffffff1603612cbb57806040517f7e273289000000000000000000000000000000000000000000000000000000008152600401612cb29190613518565b60405180910390fd5b81816040517f177e802f000000000000000000000000000000000000000000000000000000008152600401612cf192919061439f565b60405180910390fd5b505050565b60007f8b73c3c69bb8fe3d512ecc4cf759cc79239f7b179b0ffacaa9a75d522b39400f7f00000000000000000000000000000000000000000000000000000000000000007f00000000000000000000000000000000000000000000000000000000000000004630604051602001612d7a9594939291906143c8565b60405160208183030381529060405280519060200120905090565b60008060007f7fffffffffffffffffffffffffffffff5d576e7357a4501ddfe92f46681b20a08460001c1115612dd5576000600385925092509250612e7f565b600060018888888860405160008152602001604052604051612dfa9493929190614437565b6020604051602081039080840390855afa158015612e1c573d6000803e3d6000fd5b505050602060405103519050600073ffffffffffffffffffffffffffffffffffffffff168173ffffffffffffffffffffffffffffffffffffffff1603612e7057600060016000801b93509350935050612e7f565b8060008060001b935093509350505b9450945094915050565b60606000612e9683613111565b90506000602067ffffffffffffffff811115612eb557612eb4613968565b5b6040519080825280601f01601f191660200182016040528015612ee75781602001600182028036833780820191505090505b5090508181528360208201528092505050919050565b600080600090507a184f03e93ff9f4daa797ed6e38ed64bf6a1f0100000000000000008310612f5b577a184f03e93ff9f4daa797ed6e38ed64bf6a1f0100000000000000008381612f5157612f50614370565b5b0492506040810190505b6d04ee2d6d415b85acef81000000008310612f98576d04ee2d6d415b85acef81000000008381612f8e57612f8d614370565b5b0492506020810190505b662386f26fc100008310612fc757662386f26fc100008381612fbd57612fbc614370565b5b0492506010810190505b6305f5e1008310612ff0576305f5e1008381612fe657612fe5614370565b5b0492506008810190505b612710831061301557612710838161300b5761300a614370565b5b0492506004810190505b60648310613038576064838161302e5761302d614370565b5b0492506002810190505b600a8310613047576001810190505b80915050919050565b60008073ffffffffffffffffffffffffffffffffffffffff168373ffffffffffffffffffffffffffffffffffffffff161415801561310857508273ffffffffffffffffffffffffffffffffffffffff168473ffffffffffffffffffffffffffffffffffffffff1614806130c957506130c88484611728565b5b8061310757508273ffffffffffffffffffffffffffffffffffffffff166130ef836119ef565b73ffffffffffffffffffffffffffffffffffffffff16145b5b90509392505050565b60008060ff8360001c169050601f811115613158576040517fb3512b0c00000000000000000000000000000000000000000000000000000000815260040160405180910390fd5b80915050919050565b6000604051905090565b600080fd5b600080fd5b6000819050919050565b61318881613175565b811461319357600080fd5b50565b6000813590506131a58161317f565b92915050565b6000602082840312156131c1576131c061316b565b5b60006131cf84828501613196565b91505092915050565b600081519050919050565b600082825260208201905092915050565b60005b838110156132125780820151818401526020810190506131f7565b60008484015250505050565b6000601f19601f8301169050919050565b600061323a826131d8565b61324481856131e3565b93506132548185602086016131f4565b61325d8161321e565b840191505092915050565b600073ffffffffffffffffffffffffffffffffffffffff82169050919050565b600061329382613268565b9050919050565b6132a381613288565b82525050565b600060608201905081810360008301526132c3818661322f565b90506132d2602083018561329a565b81810360408301526132e4818461322f565b9050949350505050565b60007fffffffff0000000000000000000000000000000000000000000000000000000082169050919050565b613323816132ee565b811461332e57600080fd5b50565b6000813590506133408161331a565b92915050565b60006020828403121561335c5761335b61316b565b5b600061336a84828501613331565b91505092915050565b60008115159050919050565b61338881613373565b82525050565b60006020820190506133a3600083018461337f565b92915050565b600060208201905081810360008301526133c3818461322f565b905092915050565b60006020820190506133e0600083018461329a565b92915050565b6133ef81613288565b81146133fa57600080fd5b50565b60008135905061340c816133e6565b92915050565b600080604083850312156134295761342861316b565b5b6000613437858286016133fd565b925050602061344885828601613196565b9150509250929050565b60008060006060848603121561346b5761346a61316b565b5b6000613479868287016133fd565b935050602061348a868287016133fd565b925050604061349b86828701613196565b9150509250925092565b6000602082840312156134bb576134ba61316b565b5b60006134c9848285016133fd565b91505092915050565b6134db81613175565b82525050565b60006060820190506134f660008301866134d2565b61350360208301856134d2565b61351060408301846134d2565b949350505050565b600060208201905061352d60008301846134d2565b92915050565b600080fd5b600080fd5b600080fd5b60008083601f84011261355857613557613533565b5b8235905067ffffffffffffffff81111561357557613574613538565b5b6020830191508360018202830111156135915761359061353d565b5b9250929050565b60008083601f8401126135ae576135ad613533565b5b8235905067ffffffffffffffff8111156135cb576135ca613538565b5b6020830191508360018202830111156135e7576135e661353d565b5b9250929050565b60008060008060008060006080888a03121561360d5761360c61316b565b5b600061361b8a828b016133fd565b975050602088013567ffffffffffffffff81111561363c5761363b613170565b5b6136488a828b01613542565b9650965050604088013567ffffffffffffffff81111561366b5761366a613170565b5b6136778a828b01613542565b9450945050606088013567ffffffffffffffff81111561369a57613699613170565b5b6136a68a828b01613598565b925092505092959891949750929550565b60007fff0000000000000000000000000000000000000000000000000000000000000082169050919050565b6136ec816136b7565b82525050565b6000819050919050565b613705816136f2565b82525050565b600081519050919050565b600082825260208201905092915050565b6000819050602082019050919050565b61374081613175565b82525050565b60006137528383613737565b60208301905092915050565b6000602082019050919050565b60006137768261370b565b6137808185613716565b935061378b83613727565b8060005b838110156137bc5781516137a38882613746565b97506137ae8361375e565b92505060018101905061378f565b5085935050505092915050565b600060e0820190506137de600083018a6136e3565b81810360208301526137f0818961322f565b90508181036040830152613804818861322f565b905061381360608301876134d2565b613820608083018661329a565b61382d60a08301856136fc565b81810360c083015261383f818461376b565b905098975050505050505050565b61385681613373565b811461386157600080fd5b50565b6000813590506138738161384d565b92915050565b600080604083850312156138905761388f61316b565b5b600061389e858286016133fd565b92505060206138af85828601613864565b9150509250929050565b6000806000806000608086880312156138d5576138d461316b565b5b60006138e3888289016133fd565b95505060206138f4888289016133fd565b945050604061390588828901613196565b935050606086013567ffffffffffffffff81111561392657613925613170565b5b61393288828901613598565b92509250509295509295909350565b6000602082019050818103600083015261395b818461376b565b905092915050565b600080fd5b7f4e487b7100000000000000000000000000000000000000000000000000000000600052604160045260246000fd5b6139a08261321e565b810181811067ffffffffffffffff821117156139bf576139be613968565b5b80604052505050565b60006139d2613161565b90506139de8282613997565b919050565b600067ffffffffffffffff8211156139fe576139fd613968565b5b613a078261321e565b9050602081019050919050565b82818337600083830152505050565b6000613a36613a31846139e3565b6139c8565b905082815260208101848484011115613a5257613a51613963565b5b613a5d848285613a14565b509392505050565b600082601f830112613a7a57613a79613533565b5b8135613a8a848260208601613a23565b91505092915050565b60008060008060808587031215613aad57613aac61316b565b5b6000613abb878288016133fd565b9450506020613acc878288016133fd565b9350506040613add87828801613196565b925050606085013567ffffffffffffffff811115613afe57613afd613170565b5b613b0a87828801613a65565b91505092959194509250565b60008060408385031215613b2d57613b2c61316b565b5b6000613b3b858286016133fd565b9250506020613b4c858286016133fd565b9150509250929050565b7f546f6b656e20646f6573206e6f74206578697374000000000000000000000000600082015250565b6000613b8c6014836131e3565b9150613b9782613b56565b602082019050919050565b60006020820190508181036000830152613bbb81613b7f565b9050919050565b7f4e487b7100000000000000000000000000000000000000000000000000000000600052602260045260246000fd5b60006002820490506001821680613c0957607f821691505b602082108103613c1c57613c1b613bc2565b5b50919050565b6000606082019050613c37600083018661329a565b613c4460208301856134d2565b613c51604083018461329a565b949350505050565b600060c082019050613c6e60008301896136fc565b613c7b602083018861329a565b613c8860408301876136fc565b613c95606083018661329a565b613ca260808301856136fc565b613caf60a08301846134d2565b979650505050505050565b7f496e76616c6964207369676e6174757265000000000000000000000000000000600082015250565b6000613cf06011836131e3565b9150613cfb82613cba565b602082019050919050565b60006020820190508181036000830152613d1f81613ce3565b9050919050565b7f4e487b7100000000000000000000000000000000000000000000000000000000600052601160045260246000fd5b6000613d6082613175565b91507fffffffffffffffffffffffffffffffffffffffffffffffffffffffffffffffff8203613d9257613d91613d26565b5b600182019050919050565b60008160601b9050919050565b6000613db582613d9d565b9050919050565b6000613dc782613daa565b9050919050565b613ddf613dda82613288565b613dbc565b82525050565b6000819050919050565b613e00613dfb82613175565b613de5565b82525050565b600081905092915050565b6000613e1d8385613e06565b9350613e2a838584613a14565b82840190509392505050565b6000613e428288613dce565b601482019150613e528287613def565b602082019150613e63828587613e11565b9150613e6f8284613def565b6020820191508190509695505050505050565b600060a082019050613e9760008301886136fc565b613ea4602083018761329a565b613eb1604083018661329a565b613ebe60608301856134d2565b613ecb60808301846134d2565b9695505050505050565b7f4e6f7420746865206f776e657200000000000000000000000000000000000000600082015250565b6000613f0b600d836131e3565b9150613f1682613ed5565b602082019050919050565b60006020820190508181036000830152613f3a81613efe565b9050919050565b7f4e487b7100000000000000000000000000000000000000000000000000000000600052603260045260246000fd5b6000613f7b826131d8565b613f858185613e06565b9350613f958185602086016131f4565b80840191505092915050565b6000613fad8285613f70565b9150613fb98284613f70565b91508190509392505050565b60008190508160005260206000209050919050565b60006020601f8301049050919050565b600082821b905092915050565b6000600883026140277fffffffffffffffffffffffffffffffffffffffffffffffffffffffffffffffff82613fea565b6140318683613fea565b95508019841693508086168417925050509392505050565b6000819050919050565b600061406e61406961406484613175565b614049565b613175565b9050919050565b6000819050919050565b61408883614053565b61409c61409482614075565b848454613ff7565b825550505050565b600090565b6140b16140a4565b6140bc81848461407f565b505050565b5b818110156140e0576140d56000826140a9565b6001810190506140c2565b5050565b601f821115614125576140f681613fc5565b6140ff84613fda565b8101602085101561410e578190505b61412261411a85613fda565b8301826140c1565b50505b505050565b600082821c905092915050565b60006141486000198460080261412a565b1980831691505092915050565b60006141618383614137565b9150826002028217905092915050565b61417a826131d8565b67ffffffffffffffff81111561419357614192613968565b5b61419d8254613bf1565b6141a88282856140e4565b600060209050601f8311600181146141db57600084156141c9578287015190505b6141d38582614155565b86555061423b565b601f1984166141e986613fc5565b60005b82811015614211578489015182556001820191506020850194506020810190506141ec565b8683101561422e578489015161422a601f891682614137565b8355505b6001600288020188555050505b505050505050565b600081519050919050565b600082825260208201905092915050565b600061426a82614243565b614274818561424e565b93506142848185602086016131f4565b61428d8161321e565b840191505092915050565b60006080820190506142ad600083018761329a565b6142ba602083018661329a565b6142c760408301856134d2565b81810360608301526142d9818461425f565b905095945050505050565b6000815190506142f38161331a565b92915050565b60006020828403121561430f5761430e61316b565b5b600061431d848285016142e4565b91505092915050565b7f4e487b7100000000000000000000000000000000000000000000000000000000600052602160045260246000fd5b600060208201905061436a60008301846136fc565b92915050565b7f4e487b7100000000000000000000000000000000000000000000000000000000600052601260045260246000fd5b60006040820190506143b4600083018561329a565b6143c160208301846134d2565b9392505050565b600060a0820190506143dd60008301886136fc565b6143ea60208301876136fc565b6143f760408301866136fc565b61440460608301856134d2565b614411608083018461329a565b9695505050505050565b600060ff82169050919050565b6144318161441b565b82525050565b600060808201905061444c60008301876136fc565b6144596020830186614428565b61446660408301856136fc565b61447360608301846136fc565b9594505050505056fea2646970667358221220e434353c4d23725aded5557e093853b1c48fa8c1aff33c62557cb3c3387ca9b564736f6c634300081c0033",
  "linkReferences": {},
  "deployedLinkReferences": {}
}